:02000004080AE8
:1000000000000A08C40F0A080000050006000501E8
:080010000402CF000000000013
:10001800840D0A0809480A4908B5884205D0094AE2
:10002800824202D0121A00F08DFE0748074A0021CA
:10003800121A00F092FE064808BD00BF0003002017
:10004800940F0A08080300200803002080080020F5
:100058008008002070B500F04DFC074B074C1E4689
:10006800E41AA4080025A54204D056F8253098477C
:100078000135F8E770BD00BF600F0A08900F0A0845
:1000880000F012B808B500F01FF8BDE8084000F00D
:10009800EFBB00F053B90078B0FA80F04009704720
:1000A800012303707047000008B5064B012118882A
:1000B80000F068FC00F032FBBDE808404FF4165130
:1000C80000F012BB0003002010B5094C0121208864
:1000D80000F069FC4FF4FA6000F038F9208800213C
:1000E80000F061FCBDE810404FF4FA6000F02EB952
:1000F8000003002000F018B808B5024B1B681B6B02
:10010800019308BDD001060808B5024B1B685B685F
:10011800019308BD9C01060808B5024B1B685B6982
:10012800019308BD9C01060808B5024B1B681B68B3
:10013800019308BDB001060808B5024B1B689B680F
:10014800019308BDB001060808B5024B1B68DB68BF
:10015800019308BDB001060808B5024B1B681B696E
:10016800019308BDB001060808B5024B1B681B6E59
:10017800019308BDAC01060808B5024B1B685B6E0D
:10018800019308BDAC01060808B5024B1B689B6EBD
:10019800019308BDAC01060808B5024B1B68DB6E6D
:1001A800019308BDAC01060808B5024B1B681B6F1C
:1001B800019308BDAC01060808B5024B1B685B6FCC
:1001C800019308BDAC01060808B5034B1B68D3F8BA
:1001D8008030019308BD0000AC01060808B5024B49
:1001E8001B68DB69019308BDB401060808B5024B1A
:1001F8001B681B6A019308BDB401060808B5024BC9
:100208001B689B69019308BDC401060808B5024B29
:100218001B685B6A019308BDC401060808B5024B58
:100228001B689B6A019308BDC401060808B5024B08
:100238001B68DB6A019308BDC401060808B5024BB8
:100248001B681B6B019308BDC401060808B5024B67
:100258001B685B6B019308BDC401060808B5024B17
:100268001B689B6B019308BDC401060808B5024BC7
:100278001B681B6C019308BDC401060808B5024B36
:100288001B681B68019308BDD801060808B5024B16
:100298001B685B68019308BDD801060808B5024BC6
:1002A8001B681B69019308BDD801060808B5024BF5
:1002B8001B685B69019308BDD801060808B5024BA5
:1002C8001B689B69019308BDD801060808B5024B55
:1002D8001B68DB69019308BDD801060808B5024B05
:1002E8001B681B6A019308BDD801060808B5024BB4
:1002F8001B685B68019308BDA401060808B5024B9A
:100308001B685B69019308BDA401060808B5024B88
:100318001B685B6E019308BDA401060808B5024B73
:100328001B689B6E019308BDA401060808B5024B23
:100338001B681B69019308BDC801060808B5024B74
:100348001B685B68019308BDA00106080021FFF740
:10035800D5BF10B58368044613B1032201469847F8
:10036800204610BD7047F8B5064615460C468F184E
:10037800BC4206D0336814F8011B9B683046984786
:10038800F6E72846F8BD0022007CFFF7EDBE002105
:10039800007CFFF7F1BE0021007CFFF7F5BE0021CD
:1003A800007CFFF7F9BE0021007CFFF7FDBE10B509
:1003B8000446FFF76EFE204610BD000010B5044647
:1003C80008464FF47A73A360044B002120746160DF
:1003D8002360FFF7F9FE204610BD00BFA00D0A08F4
:1003E8000021007CFFF7E8BE704710B50446FFF710
:1003F80050FE204610BDF8B50F4600F10806051D51
:10040800002416F8011D0A22384600F082F8AE4290
:10041800044407D0002CF4D02E21384600F04CF8C4
:100428000444EEE72046F8BD10B59DF8084044EABC
:10043800032343EA024242EA01610423416003754F
:1004480010BD000037B5044D05609DF818500095A3
:10045800FFF7EAFF03B030BDC80D0A08014A024B96
:100468001A6070478F0E0A080C030020F8B506467C
:100478000D468F180024BD420CD0336815F8011BB7
:100488009B6830469847002801DB0444F3E7002CBA
:1004980008BF04462046F8BD70B505460C46084618
:1004A80049B100F062FC2B68024621462846BDE8A7
:1004B8007040DB68184770BD03689B681847012ABD
:1004C80098BF0A2230B50B468BB000218DF8241056
:1004D8000DF12304B3FBF2F505FB1233DBB2092B54
:1004E80094BF30333733DBB2214604F801392B4649
:1004F800002DEFD1FFF7D0FF0BB030BD10B422B9FB
:100508000368C9B29B6810BC1847D2B210BCFFF789
:10051800D6BFFFF7F3BF10B50446FFF71AFF204612
:1005280010BD0000034800238360034A034900F01C
:10053800ADBA00BF10030020080300201F050A08F9
:10054800704710B50446FFF7A4FD204610BD000013
:1005580070B504460E46074B0025036040F80C5F53
:10056800FFF7CAFD30462671FFF738FEA560204622
:1005780070BD00BFC00E0A080079FFF737BE002023
:10058800FFF7B4BE024B1A68024B1A60704700BFEF
:100598000403002020030020704741747047007C4A
:1005A800FFF764BE007CFFF739BE007CFFF746BE4C
:1005B800007CFFF73BBE007CFFF748BE10B5044641
:1005C800FFF767FD204610BD70B5457C04460E4612
:1005D80025B9007CFFF74AFE002805DD3146207C5E
:1005E800BDE87040FFF712BE284670BD10B504463E
:1005F80008461146002262604FF47A72A260054AEA
:1006080020742260012262741A46FFF7F7FD204623
:1006180010BD00BFFC0E0A08007CFFF71FBE0000DB
:1006280038B50C4D296811F0010411D12846FFF79F
:1006380032FD68B1084A2146084B0948FFF7D6FF42
:100648002846FFF72DFD074A0749054800F01EFA1E
:10065800034838BDBC030020C00300203803002035
:100668002403002008030020A1050A0841747047EC
:1006780070470021007CFFF721BE0121007CFFF7B5
:100688001DBE007CFFF712BE007CFFF707BE38B521
:100698000446007C0D46FFF709FE002801DC607C5B
:1006A80020B12946207CFFF711FE012038BD007CCF
:1006B800FFF714BE10B50446FFF7EBFC204610BD4B
:1006C80010B50446002363604FF47A73A360054BAA
:1006D800084623600123217463741146FFF7CEFD99
:1006E800204610BD2C0F0A080022007CFFF7CEBD63
:1006F80010B504461422002100F02FFB054B2046BC
:100708006360054BE36040F2011323818123238258
:1007180010BD00BFC90400204804002030B50E4DAC
:1007280087B001A8FFF7E4FF296811F0010410D190
:100738002846FFF7B0FC60B101AA21460748FFF739
:10074800BFFF2846FFF7ACFC054A0649034800F0FE
:100758009DF9024807B030BD44040020CC050020B4
:100768000803002079060A0810B50446142200215F
:1007780000F0F3FA054B20466360054BE36040F256
:10078800011323818123238210BD00BF7C06002032
:10079800E405002010B50E4C86B001A8FFF7E4FF71
:1007A8002368DB0710D42046FFF775FC60B101AA67
:1007B80001210848FFF784FF2046FFF771FC064A2D
:1007C8000649044800F062F9024806B010BD00BFAF
:1007D800E0050020680600200803002079060A08C2
:1007E8007047002211461046FFF7A0BD0348044B8E
:1007F800044A0549036000F049B900BF800700209A
:100808005C0F0A0808030020E9070A0808B5144B1A
:1008180033B1FFF783FF03681B699847002816DC8C
:10082800104B33B1FFF7FCFE03681B69984700289B
:1008380010DC0D4B0BB1AFF300800C4B7BB1FFF715
:10084800A9FF03681B699847002806DC08BDAFF3B9
:100858000080E5E7AFF30080EBE7AFF3008008BD69
:100868000000000000000000000000000000000080
:1008780008B5FFF7CBFFFFF74FFC014B186008BD29
:100888008C0700200248034A0349121A00F05ABA9A
:100898000040024004400240900F0A0800207047C0
:1008A80037B5436804460A2B0ED0502B1CD1104B89
:1008B8001D68CDB1037D4FF400710093C26800F14B
:1008C80010038068A84707E000F11003C2684FF4DE
:1008D80000718068FFF7E2FF30B100222046114620
:1008E800FFF71CFD012000E0002003B030BD00BF71
:1008F8008407002038B50C4C0C4D2368AB420C4BD8
:100908000CBF012200221A7002D0FFF7BBFF25603E
:10091800084B1BB1FFF7F8FBAFF30080BDE8384088
:1009280000210548FFF7F2BC004002401E1C279A30
:100938008807002000000000A9080A0810B504462E
:100948000F48FFF719FE28B1A4F10D03022B01D8B7
:10095800002010BD00F040F8FFF742FD08B1012C5F
:10096800F6D9FFF75DFEFFF757FE18B1A4F11203A1
:10097800012BEDD9172C8CBF0020012010BD00BF22
:10098800C0070020172838B504460D460AD8FF29A5
:1009980008D0FFF7D3FF28B129462046BDE83840E4
:1009A800FFF7CABB38BD38B504460D46FFF7CCFB88
:1009B800FF2810D0062804D84D2323FA00F0C307D7
:1009C80009D42046FFF7BAFF28B129462046BDE8DA
:1009D8003840FFF7C1BB38BD38B50B4D296811F059
:1009E80001040FD12846FFF756FB58B121460748A6
:1009F800FFF7E4FC2846FFF753FB054A054903487F
:100A080000F044F8014838BD900700209407002002
:100A1800080300206D030A0813B5084C00231A4682
:100A2800194600932046FFF70DFD2046044A054964
:100A380002B0BDE8104000F029B800BFA8070020A8
:100A480008030020F1030A0870B50C4C0C4E0D4D3C
:100A580000212046FFF77CFD20460B4C32462946F4
:100A680000F014F801212046FFF772FD32462946AE
:100A78002046BDE8704000F009B800BFC00700205C
:100A88000803002049050A08D00700200B46014644
:100A9800184600F049B90000244B1A68D0075CBF1B
:100AA80001221A60224B1A68D1075CBF01221A6022
:100AB800204B1A68D2075CBF01221A601E4B1A68C5
:100AC800D0075CBF01221A601C4B1A68D1075CBFB3
:100AD80001221A601A4B1A68D2075CBF01221A60F9
:100AE800184B1A68D0075CBF01221A60164B1A68A7
:100AF800D1075CBF01221A60144B1A68D2075CBF89
:100B080001221A60124B1A68D0075CBF01221A60D2
:100B1800104B1A68D1075CBF01221A600E4B1A6885
:100B2800D2075CBF01221A60704700BF0C08002082
:100B3800080800200408002000080020FC07002006
:100B4800F8070020F4070020F0070020EC07002039
:100B5800E8070020E4070020E0070020184B1A6887
:100B6800D1075CBF01221A60164B1A68D2075CBF16
:100B780001221A60144B1A68D0075CBF01221A6060
:100B8800124B1A68D1075CBF01221A60104B1A6811
:100B9800D2075CBF01221A600E4B1A68D0075CBFEF
:100BA80001221A600C4B1A68D1075CBF01221A6037
:100BB8000A4B1A68D2075CBF01221A60704700BF4F
:100BC8002C080020280800202408002020080020E5
:100BD8001C08002018080020140800201008002015
:100BE800184B1A68D1075CBF01221A60164B1A68A5
:100BF800D2075CBF01221A60144B1A68D0075CBF89
:100C080001221A60124B1A68D1075CBF01221A60D0
:100C1800104B1A68D2075CBF01221A600E4B1A6883
:100C2800D0075CBF01221A600C4B1A68D1075CBF61
:100C380001221A600A4B1A68D2075CBF01221A60A7
:100C4800704700BF4C0800204808002044080020D6
:100C5800400800203C080020380800203408002004
:100C680030080020244B1A68D0075CBF01221A60A4
:100C7800224B1A68D1075CBF01221A60204B1A6800
:100C8800D2075CBF01221A601E4B1A68D0075CBFEE
:100C980001221A601C4B1A68D1075CBF01221A6036
:100CA8001A4B1A68D2075CBF01221A60184B1A68DF
:100CB800D0075CBF01221A60164B1A68D1075CBFC7
:100CC80001221A60144B1A68D2075CBF01221A600D
:100CD800124B1A68D0075CBF01221A60104B1A68C1
:100CE800D1075CBF01221A600E4B1A68D2075CBF9D
:100CF80001221A60704700BF7C0800207808002095
:100D080074080020700800206C0800206808002083
:100D180064080020600800205C08002058080020B3
:100D2800540800205008002010B5054C13462CB17B
:100D38000A4601460220AFF3008010BD204610BDD0
:100D48000000000010B5431E0A44914204D011F877
:100D5800014B03F8014FF8E710BD034602449342E4
:100D680002D003F8011BFAE77047034613F8012B7A
:100D7800002AFBD1181A0138704700001D000A0824
:100D88005D000A0889000A088D000A0800000000B2
:100D980000000000000000006D030A08B7030A08FD
:100DA8008F030A086F030A0897030A089F030A08B3
:100DB800A7030A08AF030A080000000000000000AB
:100DC800FF030A08F1030A08F3030A0866006C6EB9
:100DD80000666E00636F64650064657461696C0029
:100DE8000D0A00253031307520005D200025640093
:100DF8002C200028293A2000205B00636F646520BE
:100E08003D200025690064657461696C73203D208C
:100E180000626175640053657269616C00555342E4
:100E280053657269616C3100747970650070617224
:100E3800616D00636D6400696400686E64007374BA
:100E4800726D0066696C74006C766C00616464484D
:100E5800616E646C65720072656D6F766548616E6F
:100E6800646C657200656E756D48616E646C657260
:100E780073004A534F4E53747265616D4C6F6748E7
:100E8800616E646C657200617070006E6F6E6500F3
:100E9800747261636500696E666F007761726E00D7
:100EA8006572726F720070616E696300616C6C00CC
:100EB800000000000000000049050A084B050A0868
:100EC8005A00252B3033643A253032750025592DC8
:100ED800256D2D25645425483A254D3A2553257A04
:100EE8000061736374696D65000000000000000014
:100EF80000000000A1050A08C5050A08D1050A086E
:100F080075040A08AD050A08B9050A08B3050A08F0
:100F1800BF050A08A3050A08A7050A08000000007B
:100F28000000000079060A08BD060A0897060A08A4
:100F380075040A0891060A087B060A0883060A0847
:100F4800B7060A088B060A0875060A08000000009A
:100F580000000000EB070A08FD000A0865040A08FB
:100F68002D050A0887050A088D050A08F5070A08E5
:100F7800210A0A08510A0A08A10A0A08650B0A0880
:080F8800E90B0A086D0C0A08D0
:040F9000000000005D
:080F940007000000E90E0A0845
:100F9C00FFFFFFFF00000102030405060708090A12
:100FAC000B0C0D0E0F101112131415161718191A0D
:080FBC001B1C1D1E1F20280054
:040FC4007856341215
:04000005080A0018CD
:00000001FF
